:020000020000FC
:0200000020C01E
:1000400059C1239A2B98249A2C98259A2D98219A55
:10005000299A00EF0AB90FEF0BB914E015BD29EB8F
:1000600026BD78943B9A439A3AD078D00FE70BB9E3
:1000700000004B9BBBD04A9BABD0499BB7D0489B61
:10008000B5D00FEB0BB900004B9BABD04A9BACD06B
:10009000499BA4D0489BAAD00FED0BB900004B9B05
:1000A000A5D04A9B98D0499BA1D0489B9FD00FEEEA
:1000B0000BB900004B9B9AD04A9B98D0499B96D095
:1000C000489B94D010E010936E00439ACECFE0E0AE
:1000D000F1E042E010E141931A95E9F70895E0E07C
:1000E000F1E04DE0419345E041934DE041934EE016
:1000F000419349E0419342E0419340E0419342E023
:1001000041934FE041934BE0419340E1419341E102
:10011000419348E0419342E0419342E0419341E002
:100120004083089581E090E0E0E0F1E040E0419319
:1001300041E041930DD041E0419342E0419342E0E0
:10014000419306D041E0419303D043E040830895BA
:1001500042E013E041931A95E9F7089557E041E032
:1001600060E1C0E1D1E0F2E0ECEF6624E50FF61DBE
:100170007A9138E06624E70FF61D3A95D9F7049096
:1001800005E088942B98079408F42B9A2D982D9AC3
:100190000A95C1F76A9539F738E088942B98479506
:1001A00008F42B9A2D982D9A3A95C1F704D05A95B8
:1001B0004423B1F608952C9A02D02C9808950FEF9D
:1001C000000014E000001A95E9F70A95C9F70895B0
:1001D00010D08CD008951AD089D0089533D086D00D
:1001E000089521D083D008959DDF089543987ED04F
:1001F0000895F82FE92F42E0408368E0E61BE031E4
:1002000008F46AD0E60F40E040830895F82FE92F04
:1002100042E0408368E0E60FE03108F45DD0E61B81
:1002200040E040830895F82FE92F42E0408361E0E9
:10023000E61BE73019F0E03108F44ED0E60F40E05D
:1002400040830895F82FE92F42E0408361E0E60FF4
:10025000E83019F0E03108F43FD0E61B40E040837D
:10026000089520E37BDF2A95E9F7089540E0408375
:100270008F2F9E2FF6DF0895E0E0F1E044E04193F8
:1002800045E0419346E0419342E041934AE0419387
:100290004BE041934CE0419342E019E041931A95C1
:1002A000E9F7DFDF0895E0E0F1E044E0419345E065
:1002B000419346E0419342E0419347E0419345E05A
:1002C000419348E0419349E0419342E018E0419373
:1002D0001A95E9F7C6DF0895EF3071F2E13019F3AE
:1002E000E53009F3EB30F9F2C1DF089511E0109326
:1002F0006E00089529EB26BD199A18950E0A0E0472
:100300001F041B0000150E1B0E150000000000004E
:1003100000000000040E150415151F0011110A0439
:10032000040404000E11111111110E00111111110C
:1003300011110E001010101010101F000E11100ED1
:1003400001110E001F10101F10101F0011111515A4
:1003500015150A001F04040404041F0011191515C3
:10036000151311001C12111111121C000E1110177F
:1003700011110F00111111110A0A04001E11111E92
:0C038000141211001111111111110E00C6
:00000001FF
